:040000004DEF06F0CA
:08000800046ED8CF05F0E0CF33
:1000100006F00001E9CF0CF0EACF07F0E1CF08F0DD
:10002000E2CF09F0D9CF0AF0DACF0BF0F3CF12F01C
:10003000F4CF13F0FACF14F000C00EF001C00FF0AF
:1000400002C010F003C011F0F2AA2AEF00F0F2B4DF
:100050004BEF00F00EC000F00FC001F010C002F036
:1000600011C003F00CC0E9FF07C0EAFF078E08C00B
:10007000E1FF09C0E2FF0AC0D9FF0BC0DAFF12C0DE
:10008000F3FF13C0F4FF14C0FAFF045006C0E0FFF2
:1000900005C0D8FF100016A60FD0D76A3D0ED66E49
:1000A000175209E1140E176E1670185203E13C0E38
:1000B000186E190618061706F2942AEF00F0464F3C
:1000C0004F5453484F5745522020204F4E20000098
:1000D0005A4150504552202020202020204F4E20B1
:1000E00000005A4150504552202020202020204F0F
:1000F00046460000544D50202530326420253032D1
:100100006420202025312E3166410000544D5020BE
:10011000253032643A2530326420202025312E31BA
:100120006641000045584345534F2020534F4C55DE
:1001300043494F4E0A20202020202025312E3166B1
:1001400041202020202020002A2020464F4F5453B9
:10015000484F57455220202A0A20202020202025C1
:10016000312E316641000C50524F4345534F2044CD
:100170004554454E49444F000C2046494E204445C5
:10018000205445524150494100002A205A454C45CF
:100190004354524F4E204341202A0000EA6A2F0E5A
:1001A000E96EEF500EE0010E016E006A002EFED7E0
:1001B000012EFBD74A0E006E002EFED700D0EF2E88
:1001C000F2D712003638F00B006E0F0E8A140010B2
:1001D0008A6E00008986929600D0899692961200C7
:1001E0008150006E00380F0B016E12000F0E931439
:1001F000F009936E8A82939200008986929600009D
:10020000EFDF01C036F089969296000089869296BB
:100210000000E6DF01C035F0899692960F0E931428
:10022000936E3638006EF00E001600503510016ED9
:1002300020EF01F09296939093928A909390D6D764
:1002400001C035F001BEFBD7335202E18A9001D0E4
:100250008A80939000008A929392000089969296E9
:100260003438356E0F0E351635C036F0ABDF3450EE
:100270000F0B356E366EA6DF1200280E226E0C0EA6
:10028000236E010E246E060E256E899692968A9034
:1002900093908A9293920F0E9314936E92969390EA
:1002A00093920F0E2F6E7ADF010E216E21500308FC
:1002B00008E3030E366E86DF050E2F6E6FDF212AF0
:1002C000F5D7020E366E7EDF050E2F6E67DF216AD0
:1002D000215003080FE3036A2150220FE96E000E3C
:1002E0000320EA6EEFCF26F0336A26C034F0A2DF97
:1002F000212AEED75BEF06F0302C01D003D0400E60
:10030000316E01D0316A010E2F5C312631508009E7
:10031000326E336A346E8EDF12002E50070A07E009
:100320000B0A0AE0060A10E0020A14E018D0010ED7
:100330002F6E306EE1DF18D0336A010E346E7ADF33
:10034000020E2F6E2BDF10D0010E2F6E020E306EBC
:10035000D3DF0AD0336A100E346E6CDF05D0010E85
:10036000336E2EC034F066DF12000900F5520CE047
:10037000F6CF21F0F7CF22F0F5CF2EF0CEDF21C05F
:10038000F6FF22C0F7FFF1D712008E0E006E22C0DA
:1003900001F021C002F0036A015209E102C001F03C
:1003A000026A080E005E015202E1006A08D0D8908D
:1003B00001BE04D0023601360006F9D7019E14EFC3
:1003C00003F02E50D8B471D0006E3250D8B46DD036
:1003D000002604E3810E002668E204D07F0E005E52
:1003E00064E363E02FC036F03350361A2F8E338E1D
:1003F00031503502F4CF38F030503402F4CF03F0EE
:10040000F3CF37F03502F3503826F4503722000E80
:10041000032231503402F3503826F4503722000EB4
:10042000026A032202222F503502F3503726F4507D
:100430000322000E02222F503402F3500326F45000
:100440000222000E016A012231503302F350372696
:10045000F4500322000E0222012230503302F350E6
:100460000326F4500222000E01222F503302F350D3
:100470000226F4500122002A01BE05D03736033689
:10048000023601360006000E37AE0AD0032A0222D9
:100490000122015005E1025003E1035001E1002A6D
:1004A00036BE018E36AE019E04D0006A016A026A31
:1004B000036A12002550D8B4A5D0316E2950D8B4A3
:1004C000A1D0315E05E37F0E3126D8B09BD006D097
:1004D000810E315ED8A096D0D8B494D031C000F04F
:1004E000016A026A036A306A26C02FF02F8E27C085
:1004F0002EF028C02DF0190E316E2C502D5E0DE21D
:10050000010E2E5E0AE22F5E08E2305E06E2302A1D
:100510002F2A2E2A2C502D2628D02B502E5E12E268
:10052000010E2F5E0FE2305E0DE2302A2F2A2B5093
:100530002E262C502D2619E32E2A17E12F2A15E1FD
:10054000302A13D02A5080092F5E0EE2010E305E51
:100550000BE2302A2A5080092F262B502E26E9E361
:100560002F2AE7E1302AE5D70380312E01D00BD0C6
:10057000D8902D362E362F363036D89003360236A8
:1005800001363236BAD732A006D0D89001320232C4
:100590000332323202D0000635E032BE1ED0D8908F
:1005A0002D362E362F3630362C502D5E07E2010EBA
:1005B0002E5E04E22F5E02E2305E1AE32B502E5EC6
:1005C00005E2010E2F5E02E2305E12E32A5080093E
:1005D0002F5E03E2010E305E0BE3032A09E1022ADB
:1005E00007E1012A05E1002A0DE00132023203325F
:1005F00026C031F02A50311A31AE02D0018E06D019
:10060000019E04D0006A016A026A036A39EF03F0AE
:10061000C282C2B2FED7C3CF1BF0C4CF1CF01CC035
:1006200022F01BC021F0B1D603C031F002C030F07F
:1006300001C02FF000C02EF0356A346A200E336EF0
:10064000810E326EBEDE03C024F002C023F001C072
:1006500022F000C021F003C028F002C027F001C042
:1006600026F000C025F02C6A2B6A2A6A890E296EB2
:1006700021D703C020F002C01FF001C01EF000C04F
:100680001DF012000900F6CF22F0F7CF23F0F5CFCE
:100690002EF043DE22C0F6FF23C0F7FF212EF2D753
:1006A00012002E50B6082E6E036A2FC032F02F8E25
:1006B000D8902F32303231320332023201320032DE
:1006C0002E2EF6D732AE0BD0001E011E021E031EC8
:1006D000002AD8B4012AD8B4022AD8B4032ADFEFFA
:1006E00003F0D8B203D0EA6A360EE96E006A016AF6
:1006F000026A036A366A376A386A396A35503410D2
:10070000331032102CE0200E3A6ED8902E362F3651
:100710003036313636363736383639363550395C3C
:1007200008E13450385C05E13350375C02E1325067
:10073000365C0FE33250365E3350D8A0333C375E20
:100740003450D8A0343C385E3550D8A0353C395EA2
:10075000D88000360136023603363A2ED6D736C058
:10076000EFFF37C0ECFF38C0ECFF39C0ECFF1200E0
:10077000E950266E2550286E19E024C031F023C0C0
:1007800030F022C02FF021C02EF0356A346A200EDE
:10079000336E820E326E15DE03C024F002C023F0E9
:1007A00001C022F000C021F0282EE7D724C031F08C
:1007B00023C030F022C02FF021C02EF072D703C02A
:1007C00024F002C023F001C022F000C021F024AECA
:1007D0000DD02606268A211E221E231E241E212A13
:1007E000D8B4222AD8B4232AD8B4242A3B0E2D6E9A
:1007F0009A0E2C6ECA0E2B6E2A6A0A0E286E25508F
:10080000D8B4262AD882EA6A210EE96E24C031F0D3
:1008100023C030F022C02FF021C02EF02DC035F0C3
:100820002CC034F02BC033F02AC032F05ADF015014
:1008300000520FE12528285C0CE026500CE00F0B3D
:10084000285C01E037E226BE35D026BC04D0200E5D
:100850002DD0200E261626AA0CD0269A2550D8A4D4
:1008600026060050266E2D0E2E6E57DD2650006E89
:10087000266A2550285C0AE10050266E2E0E2E6E48
:100880004CDD2650006E200E2616000E300E26AAD5
:100890000DD0269A2550D8A426060050266E2D0E7F
:1008A0002E6E3BDD2650006E266A300E002600C0FC
:1008B0002EF033DDD8922DC031F02CC030F02BC09B
:1008C0002FF02AC02EF0356A346A336A0A0E326E6F
:1008D00008DF03C02DF002C02CF001C02BF000C0D7
:1008E0002AF0282E8FD7120022C029F02650291A6C
:1008F00029AE05D0D894D89022BED8802FD022C05F
:1009000029F025C02AF021502A5E06E029AE26D023
:10091000D850010AD86E22D026C02AF022502A5E72
:1009200006E029AE1BD0D850010AD86E17D027C0D8
:100930002AF023502A5E06E029AE10D0D850010AD2
:10094000D86E0CD028C02AF024502A5E06E029AECA
:1009500005D0D850010AD86E01D0D890BFEF04F06E
:10096000330E246E236E226E7F0E216E20C028F07F
:100970001FC027F01EC026F01DC025F0B5D721E30B
:10098000010E2F6E306EB8DC43DE240EF66E010EC3
:10099000F76E170E216E76DE890EE96E20C024F008
:1009A0001FC023F01EC022F01DC021F0010E256ED5
:1009B000DFDE400EF66E010EF76E070E216E62DE70
:1009C000CFD71200010E2F6E306E96DC480EF66EF9
:1009D000010EF76E170E216E55DE890EE96E20C0EE
:1009E00024F01FC023F01EC022F01DC021F0010E14
:1009F000256EBEDE410E2E6E90DCB2DF92EF06F069
:100A00001A6A1A50130808E392948974020E2F6E22
:100A1000CEEC00F01A2AF5D712002850016A275CA4
:100A200003E227C000F00CD0006A080E296E2736BA
:100A300000362850005CD8B0006E0136292EF7D75A
:100A40001200200E22A8300E236E21C000F021AE2D
:100A500008D0001E002A00C021F02D0E236E228E29
:100A60002280015021C027F0640E286ED6DF00C01E
:100A700021F0300E0124246E21C027F00A0E286ECA
:100A8000CCDF300E0024266E300E0124256E23C0EC
:100A900000F0300E245C04E0228222BE228412D0B8
:100AA00022B410D023C024F022B204D0300E255C32
:100AB00004E0228022BE228205D0D8A42280D8B4AD
:100AC00024C025F022B405D022B206D022B007D02F
:100AD00009D023C02EF021DC24C02EF01EDC25C05E
:100AE0002EF01BDC26C02EF018DC1200010E2F6E3B
:100AF000306E02DC16A005D0BE0EF66E000EF76E4C
:100B000034DC16B025D016A215D0D00EF66E000E2D
:100B1000F76E2BDC16B40ED0000E0409CA6E200E40
:100B2000CB6E800EBE6E93968A960C0EBD6EB76A23
:100B3000B66A168416B20CD0E20EF66E000EF76E90
:100B400014DCF00EBD16000ECA6E010ECB6E1694AC
:100B5000010E2F6E020E306E7CEC01F017500A0869
:100B60002DE2F40EF66E000EF76E040E216E8ADD95
:100B700019C021F0010E226E64DF200E2E6E8DEC66
:100B800001F018C021F0010E226E5BDF010EF66E3F
:100B9000010EF76E030E216E75DD890EE96E20C021
:100BA00024F01FC023F01EC022F01DC021F0010E52
:100BB000256EDEDD410E2E6E8DEC01F0175009081A
:100BC0002DE30C0EF66E010EF76E040E216E5ADD4B
:100BD00019C021F0010E226E34DF3A0E2E6E8DEC1C
:100BE00001F018C021F0010E226E2BDF190EF66EF7
:100BF000010EF76E030E216E45DD890EE96E20C0F1
:100C000024F01FC023F01EC022F01DC021F0010EF1
:100C1000256EAEDD410E2E6E8DEC01F046EF06F036
:100C200080B812D080A8FED71696EADE660EF66E61
:100C3000010EF76EB5EC01F0080E216EFA0E2F6E64
:100C4000CEEC00F0212EFAD780BA04D0D9DE16728D
:100C500080AAFED747EF06F0185213E1195211E1AE
:100C60008194780EF66E010EF76EB5EC01F0C8DED9
:100C70000C0E216EFA0E2F6ECEEC00F0212EFAD75C
:100C8000FF004AEF06F016A606D030D7C9D7C0DC61
:100C900067DEE2D7F8D79FEF06F0F86AD09E078E9E
:100CA000620ED36ED350C29CC29EC150800B7F098E
:100CB000C16E3DEF01F0310E926E000E936E936A9D
:100CC0008A6AC29CC29EC150800B7E09C16EC05010
:100CD000C00B0709C06EC08EC280000E016EC250EC
:100CE000E30B0110C26EE00EF212C70ED56ED76A8A
:100CF0003D0ED66E16961690168281848A0EF66E7A
:100D0000010EF76EB5EC01F0060E216EFA0E2F6E95
:100D1000CEEC00F0212EFAD70C0E2E6E8DEC01F0E9
:100D200077DC50D680B80BD06BDE80A8FED7169447
:100D3000186A18C017F03C0E196E1686A4D7F0D7A3
:020D40000300AE
:020000040030CA
:0E00000000C80E1E0000810000C003E0034097
:00000001FF
;PIC18F1220
;CRC=98AC  CREATED="26-dic-17 15:25"
